{
  "_format": "hh-sol-artifact-1",
  "contractName": "TicketNFT",
  "sourceName": "contracts/TicketNFT.sol",
  "abi": [
    {
      "inputs": [
        {
          "internalType": "string",
          "name": "name_",
          "type": "string"
        },
        {
          "internalType": "string",
          "name": "symbol_",
          "type": "string"
        },
        {
          "internalType": "string",
          "name": "baseURI_",
          "type": "string"
        },
        {
          "internalType": "address",
          "name": "initialOwner",
          "type": "address"
        }
      ],
      "stateMutability": "nonpayable",
      "type": "constructor"
    },
    {
      "inputs": [
        {
          "internalType": "address",
          "name": "sender",
          "type": "address"
        },
        {
          "internalType": "uint256",
          "name": "tokenId",
          "type": "uint256"
        },
        {
          "internalType": "address",
          "name": "owner",
          "type": "address"
        }
      ],
      "name": "ERC721IncorrectOwner",
      "type": "error"
    },
    {
      "inputs": [
        {
          "internalType": "address",
          "name": "operator",
          "type": "address"
        },
        {
          "internalType": "uint256",
          "name": "tokenId",
          "type": "uint256"
        }
      ],
      "name": "ERC721InsufficientApproval",
      "type": "error"
    },
    {
      "inputs": [
        {
          "internalType": "address",
          "name": "approver",
          "type": "address"
        }
      ],
      "name": "ERC721InvalidApprover",
      "type": "error"
    },
    {
      "inputs": [
        {
          "internalType": "address",
          "name": "operator",
          "type": "address"
        }
      ],
      "name": "ERC721InvalidOperator",
      "type": "error"
    },
    {
      "inputs": [
        {
          "internalType": "address",
          "name": "owner",
          "type": "address"
        }
      ],
      "name": "ERC721InvalidOwner",
      "type": "error"
    },
    {
      "inputs": [
        {
          "internalType": "address",
          "name": "receiver",
          "type": "address"
        }
      ],
      "name": "ERC721InvalidReceiver",
      "type": "error"
    },
    {
      "inputs": [
        {
          "internalType": "address",
          "name": "sender",
          "type": "address"
        }
      ],
      "name": "ERC721InvalidSender",
      "type": "error"
    },
    {
      "inputs": [
        {
          "internalType": "uint256",
          "name": "tokenId",
          "type": "uint256"
        }
      ],
      "name": "ERC721NonexistentToken",
      "type": "error"
    },
    {
      "inputs": [
        {
          "internalType": "address",
          "name": "owner",
          "type": "address"
        }
      ],
      "name": "OwnableInvalidOwner",
      "type": "error"
    },
    {
      "inputs": [
        {
          "internalType": "address",
          "name": "account",
          "type": "address"
        }
      ],
      "name": "OwnableUnauthorizedAccount",
      "type": "error"
    },
    {
      "anonymous": false,
      "inputs": [
        {
          "indexed": true,
          "internalType": "address",
          "name": "owner",
          "type": "address"
        },
        {
          "indexed": true,
          "internalType": "address",
          "name": "approved",
          "type": "address"
        },
        {
          "indexed": true,
          "internalType": "uint256",
          "name": "tokenId",
          "type": "uint256"
        }
      ],
      "name": "Approval",
      "type": "event"
    },
    {
      "anonymous": false,
      "inputs": [
        {
          "indexed": true,
          "internalType": "address",
          "name": "owner",
          "type": "address"
        },
        {
          "indexed": true,
          "internalType": "address",
          "name": "operator",
          "type": "address"
        },
        {
          "indexed": false,
          "internalType": "bool",
          "name": "approved",
          "type": "bool"
        }
      ],
      "name": "ApprovalForAll",
      "type": "event"
    },
    {
      "anonymous": false,
      "inputs": [
        {
          "indexed": false,
          "internalType": "uint256",
          "name": "_fromTokenId",
          "type": "uint256"
        },
        {
          "indexed": false,
          "internalType": "uint256",
          "name": "_toTokenId",
          "type": "uint256"
        }
      ],
      "name": "BatchMetadataUpdate",
      "type": "event"
    },
    {
      "anonymous": false,
      "inputs": [
        {
          "indexed": false,
          "internalType": "uint256",
          "name": "_tokenId",
          "type": "uint256"
        }
      ],
      "name": "MetadataUpdate",
      "type": "event"
    },
    {
      "anonymous": false,
      "inputs": [
        {
          "indexed": true,
          "internalType": "address",
          "name": "previousOwner",
          "type": "address"
        },
        {
          "indexed": true,
          "internalType": "address",
          "name": "newOwner",
          "type": "address"
        }
      ],
      "name": "OwnershipTransferred",
      "type": "event"
    },
    {
      "anonymous": false,
      "inputs": [
        {
          "indexed": true,
          "internalType": "address",
          "name": "to",
          "type": "address"
        },
        {
          "indexed": true,
          "internalType": "uint256",
          "name": "tokenId",
          "type": "uint256"
        },
        {
          "indexed": true,
          "internalType": "uint256",
          "name": "gameId",
          "type": "uint256"
        },
        {
          "indexed": false,
          "internalType": "string",
          "name": "seatNo",
          "type": "string"
        }
      ],
      "name": "TicketMinted",
      "type": "event"
    },
    {
      "anonymous": false,
      "inputs": [
        {
          "indexed": true,
          "internalType": "address",
          "name": "from",
          "type": "address"
        },
        {
          "indexed": true,
          "internalType": "address",
          "name": "to",
          "type": "address"
        },
        {
          "indexed": true,
          "internalType": "uint256",
          "name": "tokenId",
          "type": "uint256"
        }
      ],
      "name": "Transfer",
      "type": "event"
    },
    {
      "inputs": [
        {
          "internalType": "address",
          "name": "to",
          "type": "address"
        },
        {
          "internalType": "uint256",
          "name": "tokenId",
          "type": "uint256"
        }
      ],
      "name": "approve",
      "outputs": [],
      "stateMutability": "nonpayable",
      "type": "function"
    },
    {
      "inputs": [
        {
          "internalType": "address",
          "name": "owner",
          "type": "address"
        }
      ],
      "name": "balanceOf",
      "outputs": [
        {
          "internalType": "uint256",
          "name": "",
          "type": "uint256"
        }
      ],
      "stateMutability": "view",
      "type": "function"
    },
    {
      "inputs": [
        {
          "internalType": "uint256",
          "name": "tokenId",
          "type": "uint256"
        }
      ],
      "name": "getApproved",
      "outputs": [
        {
          "internalType": "address",
          "name": "",
          "type": "address"
        }
      ],
      "stateMutability": "view",
      "type": "function"
    },
    {
      "inputs": [
        {
          "internalType": "address",
          "name": "owner",
          "type": "address"
        },
        {
          "internalType": "address",
          "name": "operator",
          "type": "address"
        }
      ],
      "name": "isApprovedForAll",
      "outputs": [
        {
          "internalType": "bool",
          "name": "",
          "type": "bool"
        }
      ],
      "stateMutability": "view",
      "type": "function"
    },
    {
      "inputs": [
        {
          "internalType": "address",
          "name": "to",
          "type": "address"
        },
        {
          "internalType": "uint256",
          "name": "gameId",
          "type": "uint256"
        },
        {
          "internalType": "string",
          "name": "seatNo",
          "type": "string"
        }
      ],
      "name": "mintTicket",
      "outputs": [
        {
          "internalType": "uint256",
          "name": "tokenId",
          "type": "uint256"
        }
      ],
      "stateMutability": "nonpayable",
      "type": "function"
    },
    {
      "inputs": [],
      "name": "name",
      "outputs": [
        {
          "internalType": "string",
          "name": "",
          "type": "string"
        }
      ],
      "stateMutability": "view",
      "type": "function"
    },
    {
      "inputs": [],
      "name": "owner",
      "outputs": [
        {
          "internalType": "address",
          "name": "",
          "type": "address"
        }
      ],
      "stateMutability": "view",
      "type": "function"
    },
    {
      "inputs": [
        {
          "internalType": "uint256",
          "name": "tokenId",
          "type": "uint256"
        }
      ],
      "name": "ownerOf",
      "outputs": [
        {
          "internalType": "address",
          "name": "",
          "type": "address"
        }
      ],
      "stateMutability": "view",
      "type": "function"
    },
    {
      "inputs": [],
      "name": "renounceOwnership",
      "outputs": [],
      "stateMutability": "nonpayable",
      "type": "function"
    },
    {
      "inputs": [
        {
          "internalType": "address",
          "name": "from",
          "type": "address"
        },
        {
          "internalType": "address",
          "name": "to",
          "type": "address"
        },
        {
          "internalType": "uint256",
          "name": "tokenId",
          "type": "uint256"
        }
      ],
      "name": "safeTransferFrom",
      "outputs": [],
      "stateMutability": "nonpayable",
      "type": "function"
    },
    {
      "inputs": [
        {
          "internalType": "address",
          "name": "from",
          "type": "address"
        },
        {
          "internalType": "address",
          "name": "to",
          "type": "address"
        },
        {
          "internalType": "uint256",
          "name": "tokenId",
          "type": "uint256"
        },
        {
          "internalType": "bytes",
          "name": "data",
          "type": "bytes"
        }
      ],
      "name": "safeTransferFrom",
      "outputs": [],
      "stateMutability": "nonpayable",
      "type": "function"
    },
    {
      "inputs": [
        {
          "internalType": "bytes32",
          "name": "",
          "type": "bytes32"
        }
      ],
      "name": "seatUsed",
      "outputs": [
        {
          "internalType": "bool",
          "name": "",
          "type": "bool"
        }
      ],
      "stateMutability": "view",
      "type": "function"
    },
    {
      "inputs": [
        {
          "internalType": "address",
          "name": "operator",
          "type": "address"
        },
        {
          "internalType": "bool",
          "name": "approved",
          "type": "bool"
        }
      ],
      "name": "setApprovalForAll",
      "outputs": [],
      "stateMutability": "nonpayable",
      "type": "function"
    },
    {
      "inputs": [
        {
          "internalType": "string",
          "name": "newBase",
          "type": "string"
        }
      ],
      "name": "setBaseURI",
      "outputs": [],
      "stateMutability": "nonpayable",
      "type": "function"
    },
    {
      "inputs": [
        {
          "internalType": "bytes4",
          "name": "interfaceId",
          "type": "bytes4"
        }
      ],
      "name": "supportsInterface",
      "outputs": [
        {
          "internalType": "bool",
          "name": "",
          "type": "bool"
        }
      ],
      "stateMutability": "view",
      "type": "function"
    },
    {
      "inputs": [],
      "name": "symbol",
      "outputs": [
        {
          "internalType": "string",
          "name": "",
          "type": "string"
        }
      ],
      "stateMutability": "view",
      "type": "function"
    },
    {
      "inputs": [
        {
          "internalType": "uint256",
          "name": "tokenId",
          "type": "uint256"
        }
      ],
      "name": "tokenURI",
      "outputs": [
        {
          "internalType": "string",
          "name": "",
          "type": "string"
        }
      ],
      "stateMutability": "view",
      "type": "function"
    },
    {
      "inputs": [
        {
          "internalType": "address",
          "name": "from",
          "type": "address"
        },
        {
          "internalType": "address",
          "name": "to",
          "type": "address"
        },
        {
          "internalType": "uint256",
          "name": "tokenId",
          "type": "uint256"
        }
      ],
      "name": "transferFrom",
      "outputs": [],
      "stateMutability": "nonpayable",
      "type": "function"
    },
    {
      "inputs": [
        {
          "internalType": "address",
          "name": "newOwner",
          "type": "address"
        }
      ],
      "name": "transferOwnership",
      "outputs": [],
      "stateMutability": "nonpayable",
      "type": "function"
    }
  ],
  "bytecode": "0x6080604052600160085534801561001557600080fd5b5060405161359938038061359983398181016040528101906100379190610390565b8084848160009081610049919061066c565b508060019081610059919061066c565b505050600073ffffffffffffffffffffffffffffffffffffffff168173ffffffffffffffffffffffffffffffffffffffff16036100ce5760006040517f1e4fbdf70000000000000000000000000000000000000000000000000000000081526004016100c5919061074d565b60405180910390fd5b6100dd816100f760201b60201c565b5081600a90816100ed919061066c565b5050505050610768565b6000600760009054906101000a900473ffffffffffffffffffffffffffffffffffffffff16905081600760006101000a81548173ffffffffffffffffffffffffffffffffffffffff021916908373ffffffffffffffffffffffffffffffffffffffff1602179055508173ffffffffffffffffffffffffffffffffffffffff168173ffffffffffffffffffffffffffffffffffffffff167f8be0079c531659141344cd1fd0a4f28419497f9722a3daafe3b4186f6b6457e060405160405180910390a35050565b6000604051905090565b600080fd5b600080fd5b600080fd5b600080fd5b6000601f19601f8301169050919050565b7f4e487b7100000000000000000000000000000000000000000000000000000000600052604160045260246000fd5b610224826101db565b810181811067ffffffffffffffff82111715610243576102426101ec565b5b80604052505050565b60006102566101bd565b9050610262828261021b565b919050565b600067ffffffffffffffff821115610282576102816101ec565b5b61028b826101db565b9050602081019050919050565b60005b838110156102b657808201518184015260208101905061029b565b60008484015250505050565b60006102d56102d084610267565b61024c565b9050828152602081018484840111156102f1576102f06101d6565b5b6102fc848285610298565b509392505050565b600082601f830112610319576103186101d1565b5b81516103298482602086016102c2565b91505092915050565b600073ffffffffffffffffffffffffffffffffffffffff82169050919050565b600061035d82610332565b9050919050565b61036d81610352565b811461037857600080fd5b50565b60008151905061038a81610364565b92915050565b600080600080608085870312156103aa576103a96101c7565b5b600085015167ffffffffffffffff8111156103c8576103c76101cc565b5b6103d487828801610304565b945050602085015167ffffffffffffffff8111156103f5576103f46101cc565b5b61040187828801610304565b935050604085015167ffffffffffffffff811115610422576104216101cc565b5b61042e87828801610304565b925050606061043f8782880161037b565b91505092959194509250565b600081519050919050565b7f4e487b7100000000000000000000000000000000000000000000000000000000600052602260045260246000fd5b6000600282049050600182168061049d57607f821691505b6020821081036104b0576104af610456565b5b50919050565b60008190508160005260206000209050919050565b60006020601f8301049050919050565b600082821b905092915050565b6000600883026105187fffffffffffffffffffffffffffffffffffffffffffffffffffffffffffffffff826104db565b61052286836104db565b95508019841693508086168417925050509392505050565b6000819050919050565b6000819050919050565b600061056961056461055f8461053a565b610544565b61053a565b9050919050565b6000819050919050565b6105838361054e565b61059761058f82610570565b8484546104e8565b825550505050565b600090565b6105ac61059f565b6105b781848461057a565b505050565b5b818110156105db576105d06000826105a4565b6001810190506105bd565b5050565b601f821115610620576105f1816104b6565b6105fa846104cb565b81016020851015610609578190505b61061d610615856104cb565b8301826105bc565b50505b505050565b600082821c905092915050565b600061064360001984600802610625565b1980831691505092915050565b600061065c8383610632565b9150826002028217905092915050565b6106758261044b565b67ffffffffffffffff81111561068e5761068d6101ec565b5b6106988254610485565b6106a38282856105df565b600060209050601f8311600181146106d657600084156106c4578287015190505b6106ce8582610650565b865550610736565b601f1984166106e4866104b6565b60005b8281101561070c578489015182556001820191506020850194506020810190506106e7565b868310156107295784890151610725601f891682610632565b8355505b6001600288020188555050505b505050505050565b61074781610352565b82525050565b6000602082019050610762600083018461073e565b92915050565b612e22806107776000396000f3fe608060405234801561001057600080fd5b50600436106101215760003560e01c806370a08231116100ad578063a22cb46511610071578063a22cb4651461031a578063b88d4fde14610336578063c87b56dd14610352578063e985e9c514610382578063f2fde38b146103b257610121565b806370a0823114610274578063715018a6146102a45780638087f457146102ae5780638da5cb5b146102de57806395d89b41146102fc57610121565b8063095ea7b3116100f4578063095ea7b3146101d457806323b872dd146101f057806342842e0e1461020c57806355f804b3146102285780636352211e1461024457610121565b806301ffc9a71461012657806303543fea1461015657806306fdde0314610186578063081812fc146101a4575b600080fd5b610140600480360381019061013b9190611e84565b6103ce565b60405161014d9190611ecc565b60405180910390f35b610170600480360381019061016b9190611fe0565b61042f565b60405161017d9190612063565b60405180910390f35b61018e6105a4565b60405161019b919061210e565b60405180910390f35b6101be60048036038101906101b99190612130565b610636565b6040516101cb919061216c565b60405180910390f35b6101ee60048036038101906101e99190612187565b610652565b005b61020a600480360381019061020591906121c7565b610668565b005b610226600480360381019061022191906121c7565b61076a565b005b610242600480360381019061023d919061221a565b61078a565b005b61025e60048036038101906102599190612130565b6107a8565b60405161026b919061216c565b60405180910390f35b61028e60048036038101906102899190612267565b6107ba565b60405161029b9190612063565b60405180910390f35b6102ac610874565b005b6102c860048036038101906102c391906122ca565b610888565b6040516102d59190611ecc565b60405180910390f35b6102e66108a8565b6040516102f3919061216c565b60405180910390f35b6103046108d2565b604051610311919061210e565b60405180910390f35b610334600480360381019061032f9190612323565b610964565b005b610350600480360381019061034b9190612493565b61097a565b005b61036c60048036038101906103679190612130565b61099f565b604051610379919061210e565b60405180910390f35b61039c60048036038101906103979190612516565b610ab2565b6040516103a99190611ecc565b60405180910390f35b6103cc60048036038101906103c79190612267565b610b46565b005b6000634906490660e01b7bffffffffffffffffffffffffffffffffffffffffffffffffffffffff1916827bffffffffffffffffffffffffffffffffffffffffffffffffffffffff19161480610428575061042782610bcc565b5b9050919050565b6000610439610cae565b6000848484604051602001610450939291906125a7565b6040516020818303038152906040528051906020012090506009600082815260200190815260200160002060009054906101000a900460ff16156104c9576040517f08c379a00000000000000000000000000000000000000000000000000000000081526004016104c09061261d565b60405180910390fd5b600860008154809291906104dc9061266c565b91905055915060016009600083815260200190815260200160002060006101000a81548160ff0219169083151502179055506105188683610d35565b6105498261052584610d53565b6040516020016105359190612731565b604051602081830303815290604052610eb3565b84828773ffffffffffffffffffffffffffffffffffffffff167fb89988e1d3e88c0f1c82060eacd83b1eeff9d84e2dceb882de0781fbb7c04fc58787604051610593929190612780565b60405180910390a450949350505050565b6060600080546105b3906127d3565b80601f01602080910402602001604051908101604052809291908181526020018280546105df906127d3565b801561062c5780601f106106015761010080835404028352916020019161062c565b820191906000526020600020905b81548152906001019060200180831161060f57829003601f168201915b5050505050905090565b600061064182610f0f565b5061064b82610f97565b9050919050565b610664828261065f610fd4565b610fdc565b5050565b600073ffffffffffffffffffffffffffffffffffffffff168273ffffffffffffffffffffffffffffffffffffffff16036106da5760006040517f64a0ae920000000000000000000000000000000000000000000000000000000081526004016106d1919061216c565b60405180910390fd5b60006106ee83836106e9610fd4565b610fee565b90508373ffffffffffffffffffffffffffffffffffffffff168173ffffffffffffffffffffffffffffffffffffffff1614610764578382826040517f64283d7b00000000000000000000000000000000000000000000000000000000815260040161075b93929190612804565b60405180910390fd5b50505050565b6107858383836040518060200160405280600081525061097a565b505050565b610792610cae565b8181600a91826107a39291906129f2565b505050565b60006107b382610f0f565b9050919050565b60008073ffffffffffffffffffffffffffffffffffffffff168273ffffffffffffffffffffffffffffffffffffffff160361082d5760006040517f89c62b64000000000000000000000000000000000000000000000000000000008152600401610824919061216c565b60405180910390fd5b600360008373ffffffffffffffffffffffffffffffffffffffff1673ffffffffffffffffffffffffffffffffffffffff168152602001908152602001600020549050919050565b61087c610cae565b6108866000611208565b565b60096020528060005260406000206000915054906101000a900460ff1681565b6000600760009054906101000a900473ffffffffffffffffffffffffffffffffffffffff16905090565b6060600180546108e1906127d3565b80601f016020809104026020016040519081016040528092919081815260200182805461090d906127d3565b801561095a5780601f1061092f5761010080835404028352916020019161095a565b820191906000526020600020905b81548152906001019060200180831161093d57829003601f168201915b5050505050905090565b61097661096f610fd4565b83836112ce565b5050565b610985848484610668565b610999610990610fd4565b8585858561143d565b50505050565b60606109aa82610f0f565b5060006006600084815260200190815260200160002080546109cb906127d3565b80601f01602080910402602001604051908101604052809291908181526020018280546109f7906127d3565b8015610a445780601f10610a1957610100808354040283529160200191610a44565b820191906000526020600020905b815481529060010190602001808311610a2757829003601f168201915b505050505090506000610a556115ee565b90506000815103610a6a578192505050610aad565b600082511115610a9f578082604051602001610a87929190612ac2565b60405160208183030381529060405292505050610aad565b610aa884611680565b925050505b919050565b6000600560008473ffffffffffffffffffffffffffffffffffffffff1673ffffffffffffffffffffffffffffffffffffffff16815260200190815260200160002060008373ffffffffffffffffffffffffffffffffffffffff1673ffffffffffffffffffffffffffffffffffffffff16815260200190815260200160002060009054906101000a900460ff16905092915050565b610b4e610cae565b600073ffffffffffffffffffffffffffffffffffffffff168173ffffffffffffffffffffffffffffffffffffffff1603610bc05760006040517f1e4fbdf7000000000000000000000000000000000000000000000000000000008152600401610bb7919061216c565b60405180910390fd5b610bc981611208565b50565b60007f80ac58cd000000000000000000000000000000000000000000000000000000007bffffffffffffffffffffffffffffffffffffffffffffffffffffffff1916827bffffffffffffffffffffffffffffffffffffffffffffffffffffffff19161480610c9757507f5b5e139f000000000000000000000000000000000000000000000000000000007bffffffffffffffffffffffffffffffffffffffffffffffffffffffff1916827bffffffffffffffffffffffffffffffffffffffffffffffffffffffff1916145b80610ca75750610ca6826116e9565b5b9050919050565b610cb6610fd4565b73ffffffffffffffffffffffffffffffffffffffff16610cd46108a8565b73ffffffffffffffffffffffffffffffffffffffff1614610d3357610cf7610fd4565b6040517f118cdaa7000000000000000000000000000000000000000000000000000000008152600401610d2a919061216c565b60405180910390fd5b565b610d4f828260405180602001604052806000815250611753565b5050565b606060008203610d9a576040518060400160405280600181526020017f30000000000000000000000000000000000000000000000000000000000000008152509050610eae565b600082905060005b60008214610dcc578080610db59061266c565b915050600a82610dc59190612b15565b9150610da2565b60008167ffffffffffffffff811115610de857610de7612368565b5b6040519080825280601f01601f191660200182016040528015610e1a5781602001600182028036833780820191505090505b5090505b60008514610ea757600182610e339190612b46565b9150600a85610e429190612b7a565b6030610e4e9190612bab565b60f81b818381518110610e6457610e63612bdf565b5b60200101907effffffffffffffffffffffffffffffffffffffffffffffffffffffffffffff1916908160001a905350600a85610ea09190612b15565b9450610e1e565b8093505050505b919050565b80600660008481526020019081526020016000209081610ed39190612c0e565b507ff8e1a15aba9398e019f0b49df1a4fde98ee17ae345cb5f6b5e2c27f5033e8ce782604051610f039190612063565b60405180910390a15050565b600080610f1b83611777565b9050600073ffffffffffffffffffffffffffffffffffffffff168173ffffffffffffffffffffffffffffffffffffffff1603610f8e57826040517f7e273289000000000000000000000000000000000000000000000000000000008152600401610f859190612063565b60405180910390fd5b80915050919050565b60006004600083815260200190815260200160002060009054906101000a900473ffffffffffffffffffffffffffffffffffffffff169050919050565b600033905090565b610fe983838360016117b4565b505050565b600080610ffa84611777565b9050600073ffffffffffffffffffffffffffffffffffffffff168373ffffffffffffffffffffffffffffffffffffffff161461103c5761103b818486611979565b5b600073ffffffffffffffffffffffffffffffffffffffff168173ffffffffffffffffffffffffffffffffffffffff16146110cd5761107e6000856000806117b4565b6001600360008373ffffffffffffffffffffffffffffffffffffffff1673ffffffffffffffffffffffffffffffffffffffff168152602001908152602001600020600082825403925050819055505b600073ffffffffffffffffffffffffffffffffffffffff168573ffffffffffffffffffffffffffffffffffffffff1614611150576001600360008773ffffffffffffffffffffffffffffffffffffffff1673ffffffffffffffffffffffffffffffffffffffff168152602001908152602001600020600082825401925050819055505b846002600086815260200190815260200160002060006101000a81548173ffffffffffffffffffffffffffffffffffffffff021916908373ffffffffffffffffffffffffffffffffffffffff160217905550838573ffffffffffffffffffffffffffffffffffffffff168273ffffffffffffffffffffffffffffffffffffffff167fddf252ad1be2c89b69c2b068fc378daa952ba7f163c4a11628f55a4df523b3ef60405160405180910390a4809150509392505050565b6000600760009054906101000a900473ffffffffffffffffffffffffffffffffffffffff16905081600760006101000a81548173ffffffffffffffffffffffffffffffffffffffff021916908373ffffffffffffffffffffffffffffffffffffffff1602179055508173ffffffffffffffffffffffffffffffffffffffff168173ffffffffffffffffffffffffffffffffffffffff167f8be0079c531659141344cd1fd0a4f28419497f9722a3daafe3b4186f6b6457e060405160405180910390a35050565b600073ffffffffffffffffffffffffffffffffffffffff168273ffffffffffffffffffffffffffffffffffffffff160361133f57816040517f5b08ba18000000000000000000000000000000000000000000000000000000008152600401611336919061216c565b60405180910390fd5b80600560008573ffffffffffffffffffffffffffffffffffffffff1673ffffffffffffffffffffffffffffffffffffffff16815260200190815260200160002060008473ffffffffffffffffffffffffffffffffffffffff1673ffffffffffffffffffffffffffffffffffffffff16815260200190815260200160002060006101000a81548160ff0219169083151502179055508173ffffffffffffffffffffffffffffffffffffffff168373ffffffffffffffffffffffffffffffffffffffff167f17307eab39ab6107e8899845ad3d59bd9653f200f220920489ca2b5937696c31836040516114309190611ecc565b60405180910390a3505050565b60008373ffffffffffffffffffffffffffffffffffffffff163b11156115e7578273ffffffffffffffffffffffffffffffffffffffff1663150b7a02868685856040518563ffffffff1660e01b815260040161149c9493929190612d35565b6020604051808303816000875af19250505080156114d857506040513d601f19601f820116820180604052508101906114d59190612d96565b60015b61155c573d8060008114611508576040519150601f19603f3d011682016040523d82523d6000602084013e61150d565b606091505b50600081510361155457836040517f64a0ae9200000000000000000000000000000000000000000000000000000000815260040161154b919061216c565b60405180910390fd5b805160208201fd5b63150b7a0260e01b7bffffffffffffffffffffffffffffffffffffffffffffffffffffffff1916817bffffffffffffffffffffffffffffffffffffffffffffffffffffffff1916146115e557836040517f64a0ae920000000000000000000000000000000000000000000000000000000081526004016115dc919061216c565b60405180910390fd5b505b5050505050565b6060600a80546115fd906127d3565b80601f0160208091040260200160405190810160405280929190818152602001828054611629906127d3565b80156116765780601f1061164b57610100808354040283529160200191611676565b820191906000526020600020905b81548152906001019060200180831161165957829003601f168201915b5050505050905090565b606061168b82610f0f565b5060006116966115ee565b905060008151116116b657604051806020016040528060008152506116e1565b806116c084611a3d565b6040516020016116d1929190612ac2565b6040516020818303038152906040525b915050919050565b60007f01ffc9a7000000000000000000000000000000000000000000000000000000007bffffffffffffffffffffffffffffffffffffffffffffffffffffffff1916827bffffffffffffffffffffffffffffffffffffffffffffffffffffffff1916149050919050565b61175d8383611b0b565b611772611768610fd4565b600085858561143d565b505050565b60006002600083815260200190815260200160002060009054906101000a900473ffffffffffffffffffffffffffffffffffffffff169050919050565b80806117ed5750600073ffffffffffffffffffffffffffffffffffffffff168273ffffffffffffffffffffffffffffffffffffffff1614155b156119215760006117fd84610f0f565b9050600073ffffffffffffffffffffffffffffffffffffffff168373ffffffffffffffffffffffffffffffffffffffff161415801561186857508273ffffffffffffffffffffffffffffffffffffffff168173ffffffffffffffffffffffffffffffffffffffff1614155b801561187b57506118798184610ab2565b155b156118bd57826040517fa9fbf51f0000000000000000000000000000000000000000000000000000000081526004016118b4919061216c565b60405180910390fd5b811561191f57838573ffffffffffffffffffffffffffffffffffffffff168273ffffffffffffffffffffffffffffffffffffffff167f8c5be1e5ebec7d5bd14f71427d1e84f3dd0314c0f7b2291e5b200ac8c7c3b92560405160405180910390a45b505b836004600085815260200190815260200160002060006101000a81548173ffffffffffffffffffffffffffffffffffffffff021916908373ffffffffffffffffffffffffffffffffffffffff16021790555050505050565b611984838383611c04565b611a3857600073ffffffffffffffffffffffffffffffffffffffff168373ffffffffffffffffffffffffffffffffffffffff16036119f957806040517f7e2732890000000000000000000000000000000000000000000000000000000081526004016119f09190612063565b60405180910390fd5b81816040517f177e802f000000000000000000000000000000000000000000000000000000008152600401611a2f929190612dc3565b60405180910390fd5b505050565b606060006001611a4c84611cc5565b01905060008167ffffffffffffffff811115611a6b57611a6a612368565b5b6040519080825280601f01601f191660200182016040528015611a9d5781602001600182028036833780820191505090505b509050600082602083010190505b600115611b00578080600190039150507f3031323334353637383961626364656600000000000000000000000000000000600a86061a8153600a8581611af457611af3612ae6565b5b04945060008503611aab575b819350505050919050565b600073ffffffffffffffffffffffffffffffffffffffff168273ffffffffffffffffffffffffffffffffffffffff1603611b7d5760006040517f64a0ae92000000000000000000000000000000000000000000000000000000008152600401611b74919061216c565b60405180910390fd5b6000611b8b83836000610fee565b9050600073ffffffffffffffffffffffffffffffffffffffff168173ffffffffffffffffffffffffffffffffffffffff1614611bff5760006040517f73c6ac6e000000000000000000000000000000000000000000000000000000008152600401611bf6919061216c565b60405180910390fd5b505050565b60008073ffffffffffffffffffffffffffffffffffffffff168373ffffffffffffffffffffffffffffffffffffffff1614158015611cbc57508273ffffffffffffffffffffffffffffffffffffffff168473ffffffffffffffffffffffffffffffffffffffff161480611c7d5750611c7c8484610ab2565b5b80611cbb57508273ffffffffffffffffffffffffffffffffffffffff16611ca383610f97565b73ffffffffffffffffffffffffffffffffffffffff16145b5b90509392505050565b600080600090507a184f03e93ff9f4daa797ed6e38ed64bf6a1f0100000000000000008310611d23577a184f03e93ff9f4daa797ed6e38ed64bf6a1f0100000000000000008381611d1957611d18612ae6565b5b0492506040810190505b6d04ee2d6d415b85acef81000000008310611d60576d04ee2d6d415b85acef81000000008381611d5657611d55612ae6565b5b0492506020810190505b662386f26fc100008310611d8f57662386f26fc100008381611d8557611d84612ae6565b5b0492506010810190505b6305f5e1008310611db8576305f5e1008381611dae57611dad612ae6565b5b0492506008810190505b6127108310611ddd576127108381611dd357611dd2612ae6565b5b0492506004810190505b60648310611e005760648381611df657611df5612ae6565b5b0492506002810190505b600a8310611e0f576001810190505b80915050919050565b6000604051905090565b600080fd5b600080fd5b60007fffffffff0000000000000000000000000000000000000000000000000000000082169050919050565b611e6181611e2c565b8114611e6c57600080fd5b50565b600081359050611e7e81611e58565b92915050565b600060208284031215611e9a57611e99611e22565b5b6000611ea884828501611e6f565b91505092915050565b60008115159050919050565b611ec681611eb1565b82525050565b6000602082019050611ee16000830184611ebd565b92915050565b600073ffffffffffffffffffffffffffffffffffffffff82169050919050565b6000611f1282611ee7565b9050919050565b611f2281611f07565b8114611f2d57600080fd5b50565b600081359050611f3f81611f19565b92915050565b6000819050919050565b611f5881611f45565b8114611f6357600080fd5b50565b600081359050611f7581611f4f565b92915050565b600080fd5b600080fd5b600080fd5b60008083601f840112611fa057611f9f611f7b565b5b8235905067ffffffffffffffff811115611fbd57611fbc611f80565b5b602083019150836001820283011115611fd957611fd8611f85565b5b9250929050565b60008060008060608587031215611ffa57611ff9611e22565b5b600061200887828801611f30565b945050602061201987828801611f66565b935050604085013567ffffffffffffffff81111561203a57612039611e27565b5b61204687828801611f8a565b925092505092959194509250565b61205d81611f45565b82525050565b60006020820190506120786000830184612054565b92915050565b600081519050919050565b600082825260208201905092915050565b60005b838110156120b857808201518184015260208101905061209d565b60008484015250505050565b6000601f19601f8301169050919050565b60006120e08261207e565b6120ea8185612089565b93506120fa81856020860161209a565b612103816120c4565b840191505092915050565b6000602082019050818103600083015261212881846120d5565b905092915050565b60006020828403121561214657612145611e22565b5b600061215484828501611f66565b91505092915050565b61216681611f07565b82525050565b6000602082019050612181600083018461215d565b92915050565b6000806040838503121561219e5761219d611e22565b5b60006121ac85828601611f30565b92505060206121bd85828601611f66565b9150509250929050565b6000806000606084860312156121e0576121df611e22565b5b60006121ee86828701611f30565b93505060206121ff86828701611f30565b925050604061221086828701611f66565b9150509250925092565b6000806020838503121561223157612230611e22565b5b600083013567ffffffffffffffff81111561224f5761224e611e27565b5b61225b85828601611f8a565b92509250509250929050565b60006020828403121561227d5761227c611e22565b5b600061228b84828501611f30565b91505092915050565b6000819050919050565b6122a781612294565b81146122b257600080fd5b50565b6000813590506122c48161229e565b92915050565b6000602082840312156122e0576122df611e22565b5b60006122ee848285016122b5565b91505092915050565b61230081611eb1565b811461230b57600080fd5b50565b60008135905061231d816122f7565b92915050565b6000806040838503121561233a57612339611e22565b5b600061234885828601611f30565b92505060206123598582860161230e565b9150509250929050565b600080fd5b7f4e487b7100000000000000000000000000000000000000000000000000000000600052604160045260246000fd5b6123a0826120c4565b810181811067ffffffffffffffff821117156123bf576123be612368565b5b80604052505050565b60006123d2611e18565b90506123de8282612397565b919050565b600067ffffffffffffffff8211156123fe576123fd612368565b5b612407826120c4565b9050602081019050919050565b82818337600083830152505050565b6000612436612431846123e3565b6123c8565b90508281526020810184848401111561245257612451612363565b5b61245d848285612414565b509392505050565b600082601f83011261247a57612479611f7b565b5b813561248a848260208601612423565b91505092915050565b600080600080608085870312156124ad576124ac611e22565b5b60006124bb87828801611f30565b94505060206124cc87828801611f30565b93505060406124dd87828801611f66565b925050606085013567ffffffffffffffff8111156124fe576124fd611e27565b5b61250a87828801612465565b91505092959194509250565b6000806040838503121561252d5761252c611e22565b5b600061253b85828601611f30565b925050602061254c85828601611f30565b9150509250929050565b6000819050919050565b61257161256c82611f45565b612556565b82525050565b600081905092915050565b600061258e8385612577565b935061259b838584612414565b82840190509392505050565b60006125b38286612560565b6020820191506125c4828486612582565b9150819050949350505050565b7f5365617420616c7265616479206d696e74656400000000000000000000000000600082015250565b6000612607601383612089565b9150612612826125d1565b602082019050919050565b60006020820190508181036000830152612636816125fa565b9050919050565b7f4e487b7100000000000000000000000000000000000000000000000000000000600052601160045260246000fd5b600061267782611f45565b91507fffffffffffffffffffffffffffffffffffffffffffffffffffffffffffffffff82036126a9576126a861263d565b5b600182019050919050565b60006126bf8261207e565b6126c98185612577565b93506126d981856020860161209a565b80840191505092915050565b7f2e6a736f6e000000000000000000000000000000000000000000000000000000600082015250565b600061271b600583612577565b9150612726826126e5565b600582019050919050565b600061273d82846126b4565b91506127488261270e565b915081905092915050565b600061275f8385612089565b935061276c838584612414565b612775836120c4565b840190509392505050565b6000602082019050818103600083015261279b818486612753565b90509392505050565b7f4e487b7100000000000000000000000000000000000000000000000000000000600052602260045260246000fd5b600060028204905060018216806127eb57607f821691505b6020821081036127fe576127fd6127a4565b5b50919050565b6000606082019050612819600083018661215d565b6128266020830185612054565b612833604083018461215d565b949350505050565b600082905092915050565b60008190508160005260206000209050919050565b60006020601f8301049050919050565b600082821b905092915050565b6000600883026128a87fffffffffffffffffffffffffffffffffffffffffffffffffffffffffffffffff8261286b565b6128b2868361286b565b95508019841693508086168417925050509392505050565b6000819050919050565b60006128ef6128ea6128e584611f45565b6128ca565b611f45565b9050919050565b6000819050919050565b612909836128d4565b61291d612915826128f6565b848454612878565b825550505050565b600090565b612932612925565b61293d818484612900565b505050565b5b818110156129615761295660008261292a565b600181019050612943565b5050565b601f8211156129a65761297781612846565b6129808461285b565b8101602085101561298f578190505b6129a361299b8561285b565b830182612942565b50505b505050565b600082821c905092915050565b60006129c9600019846008026129ab565b1980831691505092915050565b60006129e283836129b8565b9150826002028217905092915050565b6129fc838361283b565b67ffffffffffffffff811115612a1557612a14612368565b5b612a1f82546127d3565b612a2a828285612965565b6000601f831160018114612a595760008415612a47578287013590505b612a5185826129d6565b865550612ab9565b601f198416612a6786612846565b60005b82811015612a8f57848901358255600182019150602085019450602081019050612a6a565b86831015612aac5784890135612aa8601f8916826129b8565b8355505b6001600288020188555050505b50505050505050565b6000612ace82856126b4565b9150612ada82846126b4565b91508190509392505050565b7f4e487b7100000000000000000000000000000000000000000000000000000000600052601260045260246000fd5b6000612b2082611f45565b9150612b2b83611f45565b925082612b3b57612b3a612ae6565b5b828204905092915050565b6000612b5182611f45565b9150612b5c83611f45565b9250828203905081811115612b7457612b7361263d565b5b92915050565b6000612b8582611f45565b9150612b9083611f45565b925082612ba057612b9f612ae6565b5b828206905092915050565b6000612bb682611f45565b9150612bc183611f45565b9250828201905080821115612bd957612bd861263d565b5b92915050565b7f4e487b7100000000000000000000000000000000000000000000000000000000600052603260045260246000fd5b612c178261207e565b67ffffffffffffffff811115612c3057612c2f612368565b5b612c3a82546127d3565b612c45828285612965565b600060209050601f831160018114612c785760008415612c66578287015190505b612c7085826129d6565b865550612cd8565b601f198416612c8686612846565b60005b82811015612cae57848901518255600182019150602085019450602081019050612c89565b86831015612ccb5784890151612cc7601f8916826129b8565b8355505b6001600288020188555050505b505050505050565b600081519050919050565b600082825260208201905092915050565b6000612d0782612ce0565b612d118185612ceb565b9350612d2181856020860161209a565b612d2a816120c4565b840191505092915050565b6000608082019050612d4a600083018761215d565b612d57602083018661215d565b612d646040830185612054565b8181036060830152612d768184612cfc565b905095945050505050565b600081519050612d9081611e58565b92915050565b600060208284031215612dac57612dab611e22565b5b6000612dba84828501612d81565b91505092915050565b6000604082019050612dd8600083018561215d565b612de56020830184612054565b939250505056fea26469706673582212207d9978939c0d2aa873ecee68f7bea5af7a1e3401c5514d5c6a979f8bda25599d64736f6c634300081c0033",
  "linkReferences": {},
  "deployedLinkReferences": {}
}